{
  "_format": "hh-sol-artifact-1",
  "contractName": "OneTreeNFTMarketplace",
  "sourceName": "src/backend/contracts/OneTreePlantmarketplace.sol",
  "abi": [
    {
      "inputs": [],
      "stateMutability": "nonpayable",
      "type": "constructor"
    },
    {
      "anonymous": false,
      "inputs": [
        {
          "indexed": true,
          "internalType": "address",
          "name": "owner",
          "type": "address"
        },
        {
          "indexed": true,
          "internalType": "address",
          "name": "approved",
          "type": "address"
        },
        {
          "indexed": true,
          "internalType": "uint256",
          "name": "tokenId",
          "type": "uint256"
        }
      ],
      "name": "Approval",
      "type": "event"
    },
    {
      "anonymous": false,
      "inputs": [
        {
          "indexed": true,
          "internalType": "address",
          "name": "owner",
          "type": "address"
        },
        {
          "indexed": true,
          "internalType": "address",
          "name": "operator",
          "type": "address"
        },
        {
          "indexed": false,
          "internalType": "bool",
          "name": "approved",
          "type": "bool"
        }
      ],
      "name": "ApprovalForAll",
      "type": "event"
    },
    {
      "anonymous": false,
      "inputs": [
        {
          "indexed": true,
          "internalType": "address",
          "name": "from",
          "type": "address"
        },
        {
          "indexed": true,
          "internalType": "address",
          "name": "to",
          "type": "address"
        },
        {
          "indexed": true,
          "internalType": "uint256",
          "name": "tokenId",
          "type": "uint256"
        }
      ],
      "name": "Transfer",
      "type": "event"
    },
    {
      "inputs": [
        {
          "internalType": "address",
          "name": "to",
          "type": "address"
        },
        {
          "internalType": "uint256",
          "name": "tokenId",
          "type": "uint256"
        }
      ],
      "name": "approve",
      "outputs": [],
      "stateMutability": "nonpayable",
      "type": "function"
    },
    {
      "inputs": [
        {
          "internalType": "address",
          "name": "owner",
          "type": "address"
        }
      ],
      "name": "balanceOf",
      "outputs": [
        {
          "internalType": "uint256",
          "name": "",
          "type": "uint256"
        }
      ],
      "stateMutability": "view",
      "type": "function"
    },
    {
      "inputs": [
        {
          "internalType": "string",
          "name": "tokenURI",
          "type": "string"
        },
        {
          "internalType": "uint256",
          "name": "price",
          "type": "uint256"
        }
      ],
      "name": "createToken",
      "outputs": [
        {
          "internalType": "uint256",
          "name": "",
          "type": "uint256"
        }
      ],
      "stateMutability": "payable",
      "type": "function"
    },
    {
      "inputs": [
        {
          "internalType": "string",
          "name": "location",
          "type": "string"
        },
        {
          "internalType": "string",
          "name": "species",
          "type": "string"
        },
        {
          "internalType": "string",
          "name": "tokenURI",
          "type": "string"
        }
      ],
      "name": "donateAndMintNFT",
      "outputs": [],
      "stateMutability": "payable",
      "type": "function"
    },
    {
      "inputs": [],
      "name": "getAllNFTs",
      "outputs": [
        {
          "components": [
            {
              "internalType": "uint256",
              "name": "tokenId",
              "type": "uint256"
            },
            {
              "internalType": "string",
              "name": "location",
              "type": "string"
            },
            {
              "internalType": "string",
              "name": "species",
              "type": "string"
            },
            {
              "internalType": "address",
              "name": "donor",
              "type": "address"
            },
            {
              "internalType": "uint256",
              "name": "amount",
              "type": "uint256"
            }
          ],
          "internalType": "struct OneTreeNFTMarketplace.Tree[]",
          "name": "",
          "type": "tuple[]"
        }
      ],
      "stateMutability": "view",
      "type": "function"
    },
    {
      "inputs": [
        {
          "internalType": "uint256",
          "name": "tokenId",
          "type": "uint256"
        }
      ],
      "name": "getApproved",
      "outputs": [
        {
          "internalType": "address",
          "name": "",
          "type": "address"
        }
      ],
      "stateMutability": "view",
      "type": "function"
    },
    {
      "inputs": [],
      "name": "getMyNFTs",
      "outputs": [
        {
          "components": [
            {
              "internalType": "uint256",
              "name": "tokenId",
              "type": "uint256"
            },
            {
              "internalType": "string",
              "name": "location",
              "type": "string"
            },
            {
              "internalType": "string",
              "name": "species",
              "type": "string"
            },
            {
              "internalType": "address",
              "name": "donor",
              "type": "address"
            },
            {
              "internalType": "uint256",
              "name": "amount",
              "type": "uint256"
            }
          ],
          "internalType": "struct OneTreeNFTMarketplace.Tree[]",
          "name": "",
          "type": "tuple[]"
        }
      ],
      "stateMutability": "view",
      "type": "function"
    },
    {
      "inputs": [
        {
          "internalType": "address",
          "name": "owner",
          "type": "address"
        },
        {
          "internalType": "address",
          "name": "operator",
          "type": "address"
        }
      ],
      "name": "isApprovedForAll",
      "outputs": [
        {
          "internalType": "bool",
          "name": "",
          "type": "bool"
        }
      ],
      "stateMutability": "view",
      "type": "function"
    },
    {
      "inputs": [],
      "name": "listPrice",
      "outputs": [
        {
          "internalType": "uint256",
          "name": "",
          "type": "uint256"
        }
      ],
      "stateMutability": "view",
      "type": "function"
    },
    {
      "inputs": [
        {
          "internalType": "address",
          "name": "",
          "type": "address"
        },
        {
          "internalType": "uint256",
          "name": "",
          "type": "uint256"
        }
      ],
      "name": "myNFTs",
      "outputs": [
        {
          "internalType": "uint256",
          "name": "",
          "type": "uint256"
        }
      ],
      "stateMutability": "view",
      "type": "function"
    },
    {
      "inputs": [],
      "name": "name",
      "outputs": [
        {
          "internalType": "string",
          "name": "",
          "type": "string"
        }
      ],
      "stateMutability": "view",
      "type": "function"
    },
    {
      "inputs": [],
      "name": "owner",
      "outputs": [
        {
          "internalType": "address payable",
          "name": "",
          "type": "address"
        }
      ],
      "stateMutability": "view",
      "type": "function"
    },
    {
      "inputs": [
        {
          "internalType": "uint256",
          "name": "tokenId",
          "type": "uint256"
        }
      ],
      "name": "ownerOf",
      "outputs": [
        {
          "internalType": "address",
          "name": "",
          "type": "address"
        }
      ],
      "stateMutability": "view",
      "type": "function"
    },
    {
      "inputs": [
        {
          "internalType": "uint256",
          "name": "tokenId",
          "type": "uint256"
        }
      ],
      "name": "purchaseNFT",
      "outputs": [],
      "stateMutability": "payable",
      "type": "function"
    },
    {
      "inputs": [
        {
          "internalType": "address",
          "name": "from",
          "type": "address"
        },
        {
          "internalType": "address",
          "name": "to",
          "type": "address"
        },
        {
          "internalType": "uint256",
          "name": "tokenId",
          "type": "uint256"
        }
      ],
      "name": "safeTransferFrom",
      "outputs": [],
      "stateMutability": "nonpayable",
      "type": "function"
    },
    {
      "inputs": [
        {
          "internalType": "address",
          "name": "from",
          "type": "address"
        },
        {
          "internalType": "address",
          "name": "to",
          "type": "address"
        },
        {
          "internalType": "uint256",
          "name": "tokenId",
          "type": "uint256"
        },
        {
          "internalType": "bytes",
          "name": "_data",
          "type": "bytes"
        }
      ],
      "name": "safeTransferFrom",
      "outputs": [],
      "stateMutability": "nonpayable",
      "type": "function"
    },
    {
      "inputs": [
        {
          "internalType": "uint256",
          "name": "tokenId",
          "type": "uint256"
        },
        {
          "internalType": "uint256",
          "name": "price",
          "type": "uint256"
        }
      ],
      "name": "sellNFT",
      "outputs": [],
      "stateMutability": "nonpayable",
      "type": "function"
    },
    {
      "inputs": [
        {
          "internalType": "address",
          "name": "operator",
          "type": "address"
        },
        {
          "internalType": "bool",
          "name": "approved",
          "type": "bool"
        }
      ],
      "name": "setApprovalForAll",
      "outputs": [],
      "stateMutability": "nonpayable",
      "type": "function"
    },
    {
      "inputs": [
        {
          "internalType": "bytes4",
          "name": "interfaceId",
          "type": "bytes4"
        }
      ],
      "name": "supportsInterface",
      "outputs": [
        {
          "internalType": "bool",
          "name": "",
          "type": "bool"
        }
      ],
      "stateMutability": "view",
      "type": "function"
    },
    {
      "inputs": [],
      "name": "symbol",
      "outputs": [
        {
          "internalType": "string",
          "name": "",
          "type": "string"
        }
      ],
      "stateMutability": "view",
      "type": "function"
    },
    {
      "inputs": [],
      "name": "tokenIdCounter",
      "outputs": [
        {
          "internalType": "uint256",
          "name": "",
          "type": "uint256"
        }
      ],
      "stateMutability": "view",
      "type": "function"
    },
    {
      "inputs": [
        {
          "internalType": "uint256",
          "name": "",
          "type": "uint256"
        }
      ],
      "name": "tokenIdToTree",
      "outputs": [
        {
          "internalType": "uint256",
          "name": "tokenId",
          "type": "uint256"
        },
        {
          "internalType": "string",
          "name": "location",
          "type": "string"
        },
        {
          "internalType": "string",
          "name": "species",
          "type": "string"
        },
        {
          "internalType": "address",
          "name": "donor",
          "type": "address"
        },
        {
          "internalType": "uint256",
          "name": "amount",
          "type": "uint256"
        }
      ],
      "stateMutability": "view",
      "type": "function"
    },
    {
      "inputs": [
        {
          "internalType": "uint256",
          "name": "tokenId",
          "type": "uint256"
        }
      ],
      "name": "tokenURI",
      "outputs": [
        {
          "internalType": "string",
          "name": "",
          "type": "string"
        }
      ],
      "stateMutability": "view",
      "type": "function"
    },
    {
      "inputs": [
        {
          "internalType": "address",
          "name": "from",
          "type": "address"
        },
        {
          "internalType": "address",
          "name": "to",
          "type": "address"
        },
        {
          "internalType": "uint256",
          "name": "tokenId",
          "type": "uint256"
        }
      ],
      "name": "transferFrom",
      "outputs": [],
      "stateMutability": "nonpayable",
      "type": "function"
    },
    {
      "inputs": [],
      "name": "withdraw",
      "outputs": [],
      "stateMutability": "nonpayable",
      "type": "function"
    }
  ],
  "bytecode": "0x60806040526509184e72a00060085560016009553480156200002057600080fd5b506040518060400160405280601181526020017f4f6e6554726565506c616e7465644e46540000000000000000000000000000008152506040518060400160405280600681526020017f4f54504e465400000000000000000000000000000000000000000000000000008152508160009080519060200190620000a592919062000108565b508060019080519060200190620000be92919062000108565b50505033600760006101000a81548173ffffffffffffffffffffffffffffffffffffffff021916908373ffffffffffffffffffffffffffffffffffffffff1602179055506200021d565b8280546200011690620001b8565b90600052602060002090601f0160209004810192826200013a576000855562000186565b82601f106200015557805160ff191683800117855562000186565b8280016001018555821562000186579182015b828111156200018557825182559160200191906001019062000168565b5b50905062000195919062000199565b5090565b5b80821115620001b45760008160009055506001016200019a565b5090565b60006002820490506001821680620001d157607f821691505b60208210811415620001e857620001e7620001ee565b5b50919050565b7f4e487b7100000000000000000000000000000000000000000000000000000000600052602260045260246000fd5b614638806200022d6000396000f3fe6080604052600436106101665760003560e01c806370a08231116100d157806398bdf6f51161008a578063c87b56dd11610064578063c87b56dd14610513578063ddc3840314610550578063e0391b0914610591578063e985e9c5146105bc57610166565b806398bdf6f514610496578063a22cb465146104c1578063b88d4fde146104ea57610166565b806370a082311461036d57806372b3b620146103aa57806386001cd1146103da5780638da5cb5b1461041757806391a48a1e1461044257806395d89b411461046b57610166565b806323b872dd1161012357806323b872dd146102715780633ccfd60b1461029a57806342842e0e146102b1578063629cb2e4146102da5780636352211e146103055780636eb588d91461034257610166565b806301ffc9a71461016b57806306fdde03146101a8578063081812fc146101d3578063095ea7b314610210578063150bde03146102395780631c808b8c14610255575b600080fd5b34801561017757600080fd5b50610192600480360381019061018d9190612f40565b6105f9565b60405161019f9190613751565b60405180910390f35b3480156101b457600080fd5b506101bd6106db565b6040516101ca919061376c565b60405180910390f35b3480156101df57600080fd5b506101fa60048036038101906101f5919061307d565b61076d565b60405161020791906136ad565b60405180910390f35b34801561021c57600080fd5b5061023760048036038101906102329190612f04565b6107f2565b005b610253600480360381019061024e919061307d565b61090a565b005b61026f600480360381019061026a9190612f92565b610aa8565b005b34801561027d57600080fd5b5061029860048036038101906102939190612dfe565b610ce5565b005b3480156102a657600080fd5b506102af610d45565b005b3480156102bd57600080fd5b506102d860048036038101906102d39190612dfe565b610e40565b005b3480156102e657600080fd5b506102ef610e60565b6040516102fc919061372f565b60405180910390f35b34801561031157600080fd5b5061032c6004803603810190610327919061307d565b611319565b60405161033991906136ad565b60405180910390f35b34801561034e57600080fd5b506103576113cb565b6040516103649190613aae565b60405180910390f35b34801561037957600080fd5b50610394600480360381019061038f9190612d99565b6113d1565b6040516103a19190613aae565b60405180910390f35b6103c460048036038101906103bf9190613029565b611489565b6040516103d19190613aae565b60405180910390f35b3480156103e657600080fd5b5061040160048036038101906103fc9190612f04565b6115c4565b60405161040e9190613aae565b60405180910390f35b34801561042357600080fd5b5061042c6115f5565b60405161043991906136c8565b60405180910390f35b34801561044e57600080fd5b50610469600480360381019061046491906130a6565b61161b565b005b34801561047757600080fd5b5061048061171f565b60405161048d919061376c565b60405180910390f35b3480156104a257600080fd5b506104ab6117b1565b6040516104b89190613aae565b60405180910390f35b3480156104cd57600080fd5b506104e860048036038101906104e39190612ec8565b6117b7565b005b3480156104f657600080fd5b50610511600480360381019061050c9190612e4d565b6117cd565b005b34801561051f57600080fd5b5061053a6004803603810190610535919061307d565b61182f565b604051610547919061376c565b60405180910390f35b34801561055c57600080fd5b506105776004803603810190610572919061307d565b611981565b604051610588959493929190613ac9565b60405180910390f35b34801561059d57600080fd5b506105a6611ae7565b6040516105b3919061372f565b60405180910390f35b3480156105c857600080fd5b506105e360048036038101906105de9190612dc2565b611da3565b6040516105f09190613751565b60405180910390f35b60007f80ac58cd000000000000000000000000000000000000000000000000000000007bffffffffffffffffffffffffffffffffffffffffffffffffffffffff1916827bffffffffffffffffffffffffffffffffffffffffffffffffffffffff191614806106c457507f5b5e139f000000000000000000000000000000000000000000000000000000007bffffffffffffffffffffffffffffffffffffffffffffffffffffffff1916827bffffffffffffffffffffffffffffffffffffffffffffffffffffffff1916145b806106d457506106d382611e37565b5b9050919050565b6060600080546106ea90613dc1565b80601f016020809104026020016040519081016040528092919081815260200182805461071690613dc1565b80156107635780601f1061073857610100808354040283529160200191610763565b820191906000526020600020905b81548152906001019060200180831161074657829003601f168201915b5050505050905090565b600061077882611ea1565b6107b7576040517f08c379a00000000000000000000000000000000000000000000000000000000081526004016107ae906139ce565b60405180910390fd5b6004600083815260200190815260200160002060009054906101000a900473ffffffffffffffffffffffffffffffffffffffff169050919050565b60006107fd82611319565b90508073ffffffffffffffffffffffffffffffffffffffff168373ffffffffffffffffffffffffffffffffffffffff16141561086e576040517f08c379a000000000000000000000000000000000000000000000000000000000815260040161086590613a0e565b60405180910390fd5b8073ffffffffffffffffffffffffffffffffffffffff1661088d611f0d565b73ffffffffffffffffffffffffffffffffffffffff1614806108bc57506108bb816108b6611f0d565b611da3565b5b6108fb576040517f08c379a00000000000000000000000000000000000000000000000000000000081526004016108f2906138ee565b60405180910390fd5b6109058383611f15565b505050565b6000600a60008381526020019081526020016000206004015411610963576040517f08c379a000000000000000000000000000000000000000000000000000000000815260040161095a90613a2e565b60405180910390fd5b6000600a6000838152602001908152602001600020600401549050803410156109c1576040517f08c379a00000000000000000000000000000000000000000000000000000000081526004016109b8906138ae565b60405180910390fd5b6000600a600084815260200190815260200160002060030160009054906101000a900473ffffffffffffffffffffffffffffffffffffffff16905033600a600085815260200190815260200160002060030160006101000a81548173ffffffffffffffffffffffffffffffffffffffff021916908373ffffffffffffffffffffffffffffffffffffffff160217905550610a5c813385611fce565b8073ffffffffffffffffffffffffffffffffffffffff166108fc839081150290604051600060405180830381858888f19350505050158015610aa2573d6000803e3d6000fd5b50505050565b600854341015610aed576040517f08c379a0000000000000000000000000000000000000000000000000000000008152600401610ae4906138ce565b60405180910390fd5b60006009549050610afe3382612235565b610b08818361240f565b60006040518060a001604052808381526020018681526020018581526020013373ffffffffffffffffffffffffffffffffffffffff16815260200134815250905080600a6000848152602001908152602001600020600082015181600001556020820151816001019080519060200190610b83929190612b78565b506040820151816002019080519060200190610ba0929190612b78565b5060608201518160030160006101000a81548173ffffffffffffffffffffffffffffffffffffffff021916908373ffffffffffffffffffffffffffffffffffffffff16021790555060808201518160040155905050600b60003373ffffffffffffffffffffffffffffffffffffffff1673ffffffffffffffffffffffffffffffffffffffff16815260200190815260200160002082908060018154018082558091505060019003906000526020600020016000909190919091505560096000815480929190610c6e90613e24565b9190505550600760009054906101000a900473ffffffffffffffffffffffffffffffffffffffff1673ffffffffffffffffffffffffffffffffffffffff166108fc6008549081150290604051600060405180830381858888f19350505050158015610cdd573d6000803e3d6000fd5b505050505050565b610cf6610cf0611f0d565b82612483565b610d35576040517f08c379a0000000000000000000000000000000000000000000000000000000008152600401610d2c90613a4e565b60405180910390fd5b610d40838383611fce565b505050565b600760009054906101000a900473ffffffffffffffffffffffffffffffffffffffff1673ffffffffffffffffffffffffffffffffffffffff163373ffffffffffffffffffffffffffffffffffffffff1614610dd5576040517f08c379a0000000000000000000000000000000000000000000000000000000008152600401610dcc9061378e565b60405180910390fd5b600760009054906101000a900473ffffffffffffffffffffffffffffffffffffffff1673ffffffffffffffffffffffffffffffffffffffff166108fc479081150290604051600060405180830381858888f19350505050158015610e3d573d6000803e3d6000fd5b50565b610e5b838383604051806020016040528060008152506117cd565b505050565b60606000600b60003373ffffffffffffffffffffffffffffffffffffffff1673ffffffffffffffffffffffffffffffffffffffff168152602001908152602001600020805480602002602001604051908101604052809291908181526020018280548015610eed57602002820191906000526020600020905b815481526020019060010190808311610ed9575b505050505090506000815190506000808267ffffffffffffffff811115610f3d577f4e487b7100000000000000000000000000000000000000000000000000000000600052604160045260246000fd5b604051908082528060200260200182016040528015610f7657816020015b610f63612bfe565b815260200190600190039081610f5b5790505b50905060005b838110156111eb576000858281518110610fbf577f4e487b7100000000000000000000000000000000000000000000000000000000600052603260045260246000fd5b60200260200101519050610fd33382612483565b156111d757600a60008281526020019081526020016000206040518060a00160405290816000820154815260200160018201805461101090613dc1565b80601f016020809104026020016040519081016040528092919081815260200182805461103c90613dc1565b80156110895780601f1061105e57610100808354040283529160200191611089565b820191906000526020600020905b81548152906001019060200180831161106c57829003601f168201915b505050505081526020016002820180546110a290613dc1565b80601f01602080910402602001604051908101604052809291908181526020018280546110ce90613dc1565b801561111b5780601f106110f05761010080835404028352916020019161111b565b820191906000526020600020905b8154815290600101906020018083116110fe57829003601f168201915b505050505081526020016003820160009054906101000a900473ffffffffffffffffffffffffffffffffffffffff1673ffffffffffffffffffffffffffffffffffffffff1673ffffffffffffffffffffffffffffffffffffffff1681526020016004820154815250508385815181106111bd577f4e487b7100000000000000000000000000000000000000000000000000000000600052603260045260246000fd5b602002602001018190525083806111d390613e24565b9450505b5080806111e390613e24565b915050610f7c565b5060008267ffffffffffffffff81111561122e577f4e487b7100000000000000000000000000000000000000000000000000000000600052604160045260246000fd5b60405190808252806020026020018201604052801561126757816020015b611254612bfe565b81526020019060019003908161124c5790505b50905060005b8381101561130d578281815181106112ae577f4e487b7100000000000000000000000000000000000000000000000000000000600052603260045260246000fd5b60200260200101518282815181106112ef577f4e487b7100000000000000000000000000000000000000000000000000000000600052603260045260246000fd5b6020026020010181905250808061130590613e24565b91505061126d565b50809550505050505090565b6000806002600084815260200190815260200160002060009054906101000a900473ffffffffffffffffffffffffffffffffffffffff169050600073ffffffffffffffffffffffffffffffffffffffff168173ffffffffffffffffffffffffffffffffffffffff1614156113c2576040517f08c379a00000000000000000000000000000000000000000000000000000000081526004016113b99061394e565b60405180910390fd5b80915050919050565b60085481565b60008073ffffffffffffffffffffffffffffffffffffffff168273ffffffffffffffffffffffffffffffffffffffff161415611442576040517f08c379a00000000000000000000000000000000000000000000000000000000081526004016114399061392e565b60405180910390fd5b600360008373ffffffffffffffffffffffffffffffffffffffff1673ffffffffffffffffffffffffffffffffffffffff168152602001908152602001600020549050919050565b600060085434146114cf576040517f08c379a00000000000000000000000000000000000000000000000000000000081526004016114c69061386e565b60405180910390fd5b60008211611512576040517f08c379a000000000000000000000000000000000000000000000000000000000815260040161150990613a6e565b60405180910390fd5b600060095490506009600081548092919061152c90613e24565b919050555061153b3382612235565b611545818561240f565b61154f8184612561565b600760009054906101000a900473ffffffffffffffffffffffffffffffffffffffff1673ffffffffffffffffffffffffffffffffffffffff166108fc6008549081150290604051600060405180830381858888f193505050501580156115b9573d6000803e3d6000fd5b508091505092915050565b600b60205281600052604060002081815481106115e057600080fd5b90600052602060002001600091509150505481565b600760009054906101000a900473ffffffffffffffffffffffffffffffffffffffff1681565b6116253383612483565b611664576040517f08c379a000000000000000000000000000000000000000000000000000000000815260040161165b9061390e565b60405180910390fd5b6000600a600084815260200190815260200160002060040154146116bd576040517f08c379a00000000000000000000000000000000000000000000000000000000081526004016116b490613a8e565b60405180910390fd5b60008111611700576040517f08c379a00000000000000000000000000000000000000000000000000000000081526004016116f79061380e565b60405180910390fd5b80600a6000848152602001908152602001600020600401819055505050565b60606001805461172e90613dc1565b80601f016020809104026020016040519081016040528092919081815260200182805461175a90613dc1565b80156117a75780601f1061177c576101008083540402835291602001916117a7565b820191906000526020600020905b81548152906001019060200180831161178a57829003601f168201915b5050505050905090565b60095481565b6117c96117c2611f0d565b8383612580565b5050565b6117de6117d8611f0d565b83612483565b61181d576040517f08c379a000000000000000000000000000000000000000000000000000000000815260040161181490613a4e565b60405180910390fd5b611829848484846126ed565b50505050565b606061183a82611ea1565b611879576040517f08c379a0000000000000000000000000000000000000000000000000000000008152600401611870906139ae565b60405180910390fd5b600060066000848152602001908152602001600020805461189990613dc1565b80601f01602080910402602001604051908101604052809291908181526020018280546118c590613dc1565b80156119125780601f106118e757610100808354040283529160200191611912565b820191906000526020600020905b8154815290600101906020018083116118f557829003601f168201915b505050505090506000611923612749565b905060008151141561193957819250505061197c565b60008251111561196e578082604051602001611956929190613689565b6040516020818303038152906040529250505061197c565b61197784612760565b925050505b919050565b600a6020528060005260406000206000915090508060000154908060010180546119aa90613dc1565b80601f01602080910402602001604051908101604052809291908181526020018280546119d690613dc1565b8015611a235780601f106119f857610100808354040283529160200191611a23565b820191906000526020600020905b815481529060010190602001808311611a0657829003601f168201915b505050505090806002018054611a3890613dc1565b80601f0160208091040260200160405190810160405280929190818152602001828054611a6490613dc1565b8015611ab15780601f10611a8657610100808354040283529160200191611ab1565b820191906000526020600020905b815481529060010190602001808311611a9457829003601f168201915b5050505050908060030160009054906101000a900473ffffffffffffffffffffffffffffffffffffffff16908060040154905085565b606060006001600954611afa9190613cc5565b905060008167ffffffffffffffff811115611b3e577f4e487b7100000000000000000000000000000000000000000000000000000000600052604160045260246000fd5b604051908082528060200260200182016040528015611b7757816020015b611b64612bfe565b815260200190600190039081611b5c5790505b5090506000600190505b600954811015611d9a57600a60008281526020019081526020016000206040518060a001604052908160008201548152602001600182018054611bc390613dc1565b80601f0160208091040260200160405190810160405280929190818152602001828054611bef90613dc1565b8015611c3c5780601f10611c1157610100808354040283529160200191611c3c565b820191906000526020600020905b815481529060010190602001808311611c1f57829003601f168201915b50505050508152602001600282018054611c5590613dc1565b80601f0160208091040260200160405190810160405280929190818152602001828054611c8190613dc1565b8015611cce5780601f10611ca357610100808354040283529160200191611cce565b820191906000526020600020905b815481529060010190602001808311611cb157829003601f168201915b505050505081526020016003820160009054906101000a900473ffffffffffffffffffffffffffffffffffffffff1673ffffffffffffffffffffffffffffffffffffffff1673ffffffffffffffffffffffffffffffffffffffff16815260200160048201548152505082600183611d459190613cc5565b81518110611d7c577f4e487b7100000000000000000000000000000000000000000000000000000000600052603260045260246000fd5b60200260200101819052508080611d9290613e24565b915050611b81565b50809250505090565b6000600560008473ffffffffffffffffffffffffffffffffffffffff1673ffffffffffffffffffffffffffffffffffffffff16815260200190815260200160002060008373ffffffffffffffffffffffffffffffffffffffff1673ffffffffffffffffffffffffffffffffffffffff16815260200190815260200160002060009054906101000a900460ff16905092915050565b60007f01ffc9a7000000000000000000000000000000000000000000000000000000007bffffffffffffffffffffffffffffffffffffffffffffffffffffffff1916827bffffffffffffffffffffffffffffffffffffffffffffffffffffffff1916149050919050565b60008073ffffffffffffffffffffffffffffffffffffffff166002600084815260200190815260200160002060009054906101000a900473ffffffffffffffffffffffffffffffffffffffff1673ffffffffffffffffffffffffffffffffffffffff1614159050919050565b600033905090565b816004600083815260200190815260200160002060006101000a81548173ffffffffffffffffffffffffffffffffffffffff021916908373ffffffffffffffffffffffffffffffffffffffff160217905550808273ffffffffffffffffffffffffffffffffffffffff16611f8883611319565b73ffffffffffffffffffffffffffffffffffffffff167f8c5be1e5ebec7d5bd14f71427d1e84f3dd0314c0f7b2291e5b200ac8c7c3b92560405160405180910390a45050565b8273ffffffffffffffffffffffffffffffffffffffff16611fee82611319565b73ffffffffffffffffffffffffffffffffffffffff1614612044576040517f08c379a000000000000000000000000000000000000000000000000000000000815260040161203b906137ce565b60405180910390fd5b600073ffffffffffffffffffffffffffffffffffffffff168273ffffffffffffffffffffffffffffffffffffffff1614156120b4576040517f08c379a00000000000000000000000000000000000000000000000000000000081526004016120ab9061382e565b60405180910390fd5b6120bf838383612807565b6120ca600082611f15565b6001600360008573ffffffffffffffffffffffffffffffffffffffff1673ffffffffffffffffffffffffffffffffffffffff168152602001908152602001600020600082825461211a9190613cc5565b925050819055506001600360008473ffffffffffffffffffffffffffffffffffffffff1673ffffffffffffffffffffffffffffffffffffffff16815260200190815260200160002060008282546121719190613c3e565b92505081905550816002600083815260200190815260200160002060006101000a81548173ffffffffffffffffffffffffffffffffffffffff021916908373ffffffffffffffffffffffffffffffffffffffff160217905550808273ffffffffffffffffffffffffffffffffffffffff168473ffffffffffffffffffffffffffffffffffffffff167fddf252ad1be2c89b69c2b068fc378daa952ba7f163c4a11628f55a4df523b3ef60405160405180910390a461223083838361280c565b505050565b600073ffffffffffffffffffffffffffffffffffffffff168273ffffffffffffffffffffffffffffffffffffffff1614156122a5576040517f08c379a000000000000000000000000000000000000000000000000000000000815260040161229c9061398e565b60405180910390fd5b6122ae81611ea1565b156122ee576040517f08c379a00000000000000000000000000000000000000000000000000000000081526004016122e5906137ee565b60405180910390fd5b6122fa60008383612807565b6001600360008473ffffffffffffffffffffffffffffffffffffffff1673ffffffffffffffffffffffffffffffffffffffff168152602001908152602001600020600082825461234a9190613c3e565b92505081905550816002600083815260200190815260200160002060006101000a81548173ffffffffffffffffffffffffffffffffffffffff021916908373ffffffffffffffffffffffffffffffffffffffff160217905550808273ffffffffffffffffffffffffffffffffffffffff16600073ffffffffffffffffffffffffffffffffffffffff167fddf252ad1be2c89b69c2b068fc378daa952ba7f163c4a11628f55a4df523b3ef60405160405180910390a461240b6000838361280c565b5050565b61241882611ea1565b612457576040517f08c379a000000000000000000000000000000000000000000000000000000000815260040161244e9061396e565b60405180910390fd5b8060066000848152602001908152602001600020908051906020019061247e929190612b78565b505050565b600061248e82611ea1565b6124cd576040517f08c379a00000000000000000000000000000000000000000000000000000000081526004016124c49061388e565b60405180910390fd5b60006124d883611319565b90508073ffffffffffffffffffffffffffffffffffffffff168473ffffffffffffffffffffffffffffffffffffffff16148061254757508373ffffffffffffffffffffffffffffffffffffffff1661252f8461076d565b73ffffffffffffffffffffffffffffffffffffffff16145b8061255857506125578185611da3565b5b91505092915050565b80600a6000848152602001908152602001600020600401819055505050565b8173ffffffffffffffffffffffffffffffffffffffff168373ffffffffffffffffffffffffffffffffffffffff1614156125ef576040517f08c379a00000000000000000000000000000000000000000000000000000000081526004016125e69061384e565b60405180910390fd5b80600560008573ffffffffffffffffffffffffffffffffffffffff1673ffffffffffffffffffffffffffffffffffffffff16815260200190815260200160002060008473ffffffffffffffffffffffffffffffffffffffff1673ffffffffffffffffffffffffffffffffffffffff16815260200190815260200160002060006101000a81548160ff0219169083151502179055508173ffffffffffffffffffffffffffffffffffffffff168373ffffffffffffffffffffffffffffffffffffffff167f17307eab39ab6107e8899845ad3d59bd9653f200f220920489ca2b5937696c31836040516126e09190613751565b60405180910390a3505050565b6126f8848484611fce565b61270484848484612811565b612743576040517f08c379a000000000000000000000000000000000000000000000000000000000815260040161273a906137ae565b60405180910390fd5b50505050565b606060405180602001604052806000815250905090565b606061276b82611ea1565b6127aa576040517f08c379a00000000000000000000000000000000000000000000000000000000081526004016127a1906139ee565b60405180910390fd5b60006127b4612749565b905060008151116127d457604051806020016040528060008152506127ff565b806127de846129a8565b6040516020016127ef929190613689565b6040516020818303038152906040525b915050919050565b505050565b505050565b60006128328473ffffffffffffffffffffffffffffffffffffffff16612b55565b1561299b578373ffffffffffffffffffffffffffffffffffffffff1663150b7a0261285b611f0d565b8786866040518563ffffffff1660e01b815260040161287d94939291906136e3565b602060405180830381600087803b15801561289757600080fd5b505af19250505080156128c857506040513d601f19601f820116820180604052508101906128c59190612f69565b60015b61294b573d80600081146128f8576040519150601f19603f3d011682016040523d82523d6000602084013e6128fd565b606091505b50600081511415612943576040517f08c379a000000000000000000000000000000000000000000000000000000000815260040161293a906137ae565b60405180910390fd5b805181602001fd5b63150b7a0260e01b7bffffffffffffffffffffffffffffffffffffffffffffffffffffffff1916817bffffffffffffffffffffffffffffffffffffffffffffffffffffffff1916149150506129a0565b600190505b949350505050565b606060008214156129f0576040518060400160405280600181526020017f30000000000000000000000000000000000000000000000000000000000000008152509050612b50565b600082905060005b60008214612a22578080612a0b90613e24565b915050600a82612a1b9190613c94565b91506129f8565b60008167ffffffffffffffff811115612a64577f4e487b7100000000000000000000000000000000000000000000000000000000600052604160045260246000fd5b6040519080825280601f01601f191660200182016040528015612a965781602001600182028036833780820191505090505b5090505b60008514612b4957600182612aaf9190613cc5565b9150600a85612abe9190613e6d565b6030612aca9190613c3e565b60f81b818381518110612b06577f4e487b7100000000000000000000000000000000000000000000000000000000600052603260045260246000fd5b60200101907effffffffffffffffffffffffffffffffffffffffffffffffffffffffffffff1916908160001a905350600a85612b429190613c94565b9450612a9a565b8093505050505b919050565b6000808273ffffffffffffffffffffffffffffffffffffffff163b119050919050565b828054612b8490613dc1565b90600052602060002090601f016020900481019282612ba65760008555612bed565b82601f10612bbf57805160ff1916838001178555612bed565b82800160010185558215612bed579182015b82811115612bec578251825591602001919060010190612bd1565b5b509050612bfa9190612c43565b5090565b6040518060a00160405280600081526020016060815260200160608152602001600073ffffffffffffffffffffffffffffffffffffffff168152602001600081525090565b5b80821115612c5c576000816000905550600101612c44565b5090565b6000612c73612c6e84613b4f565b613b2a565b905082815260208101848484011115612c8b57600080fd5b612c96848285613d7f565b509392505050565b6000612cb1612cac84613b80565b613b2a565b905082815260208101848484011115612cc957600080fd5b612cd4848285613d7f565b509392505050565b600081359050612ceb816145a6565b92915050565b600081359050612d00816145bd565b92915050565b600081359050612d15816145d4565b92915050565b600081519050612d2a816145d4565b92915050565b600082601f830112612d4157600080fd5b8135612d51848260208601612c60565b91505092915050565b600082601f830112612d6b57600080fd5b8135612d7b848260208601612c9e565b91505092915050565b600081359050612d93816145eb565b92915050565b600060208284031215612dab57600080fd5b6000612db984828501612cdc565b91505092915050565b60008060408385031215612dd557600080fd5b6000612de385828601612cdc565b9250506020612df485828601612cdc565b9150509250929050565b600080600060608486031215612e1357600080fd5b6000612e2186828701612cdc565b9350506020612e3286828701612cdc565b9250506040612e4386828701612d84565b9150509250925092565b60008060008060808587031215612e6357600080fd5b6000612e7187828801612cdc565b9450506020612e8287828801612cdc565b9350506040612e9387828801612d84565b925050606085013567ffffffffffffffff811115612eb057600080fd5b612ebc87828801612d30565b91505092959194509250565b60008060408385031215612edb57600080fd5b6000612ee985828601612cdc565b9250506020612efa85828601612cf1565b9150509250929050565b60008060408385031215612f1757600080fd5b6000612f2585828601612cdc565b9250506020612f3685828601612d84565b9150509250929050565b600060208284031215612f5257600080fd5b6000612f6084828501612d06565b91505092915050565b600060208284031215612f7b57600080fd5b6000612f8984828501612d1b565b91505092915050565b600080600060608486031215612fa757600080fd5b600084013567ffffffffffffffff811115612fc157600080fd5b612fcd86828701612d5a565b935050602084013567ffffffffffffffff811115612fea57600080fd5b612ff686828701612d5a565b925050604084013567ffffffffffffffff81111561301357600080fd5b61301f86828701612d5a565b9150509250925092565b6000806040838503121561303c57600080fd5b600083013567ffffffffffffffff81111561305657600080fd5b61306285828601612d5a565b925050602061307385828601612d84565b9150509250929050565b60006020828403121561308f57600080fd5b600061309d84828501612d84565b91505092915050565b600080604083850312156130b957600080fd5b60006130c785828601612d84565b92505060206130d885828601612d84565b9150509250929050565b60006130ee83836135ee565b905092915050565b6130ff81613d0b565b82525050565b61310e81613cf9565b82525050565b61311d81613cf9565b82525050565b600061312e82613bc1565b6131388185613bef565b93508360208202850161314a85613bb1565b8060005b85811015613186578484038952815161316785826130e2565b945061317283613be2565b925060208a0199505060018101905061314e565b50829750879550505050505092915050565b6131a181613d1d565b82525050565b60006131b282613bcc565b6131bc8185613c00565b93506131cc818560208601613d8e565b6131d581613f5a565b840191505092915050565b60006131eb82613bd7565b6131f58185613c11565b9350613205818560208601613d8e565b61320e81613f5a565b840191505092915050565b600061322482613bd7565b61322e8185613c22565b935061323e818560208601613d8e565b61324781613f5a565b840191505092915050565b600061325d82613bd7565b6132678185613c33565b9350613277818560208601613d8e565b80840191505092915050565b6000613290602183613c22565b915061329b82613f6b565b604082019050919050565b60006132b3603283613c22565b91506132be82613fba565b604082019050919050565b60006132d6602583613c22565b91506132e182614009565b604082019050919050565b60006132f9601c83613c22565b915061330482614058565b602082019050919050565b600061331c601e83613c22565b915061332782614081565b602082019050919050565b600061333f602483613c22565b915061334a826140aa565b604082019050919050565b6000613362601983613c22565b915061336d826140f9565b602082019050919050565b6000613385601a83613c22565b915061339082614122565b602082019050919050565b60006133a8602c83613c22565b91506133b38261414b565b604082019050919050565b60006133cb601283613c22565b91506133d68261419a565b602082019050919050565b60006133ee601c83613c22565b91506133f9826141c3565b602082019050919050565b6000613411603883613c22565b915061341c826141ec565b604082019050919050565b6000613434600d83613c22565b915061343f8261423b565b602082019050919050565b6000613457602a83613c22565b915061346282614264565b604082019050919050565b600061347a602983613c22565b9150613485826142b3565b604082019050919050565b600061349d602e83613c22565b91506134a882614302565b604082019050919050565b60006134c0602083613c22565b91506134cb82614351565b602082019050919050565b60006134e3603183613c22565b91506134ee8261437a565b604082019050919050565b6000613506602c83613c22565b9150613511826143c9565b604082019050919050565b6000613529602f83613c22565b915061353482614418565b604082019050919050565b600061354c602183613c22565b915061355782614467565b604082019050919050565b600061356f601e83613c22565b915061357a826144b6565b602082019050919050565b6000613592603183613c22565b915061359d826144df565b604082019050919050565b60006135b5602283613c22565b91506135c08261452e565b604082019050919050565b60006135d8601383613c22565b91506135e38261457d565b602082019050919050565b600060a083016000830151613606600086018261366b565b506020830151848203602086015261361e82826131e0565b9150506040830151848203604086015261363882826131e0565b915050606083015161364d6060860182613105565b506080830151613660608086018261366b565b508091505092915050565b61367481613d75565b82525050565b61368381613d75565b82525050565b60006136958285613252565b91506136a18284613252565b91508190509392505050565b60006020820190506136c26000830184613114565b92915050565b60006020820190506136dd60008301846130f6565b92915050565b60006080820190506136f86000830187613114565b6137056020830186613114565b613712604083018561367a565b818103606083015261372481846131a7565b905095945050505050565b600060208201905081810360008301526137498184613123565b905092915050565b60006020820190506137666000830184613198565b92915050565b600060208201905081810360008301526137868184613219565b905092915050565b600060208201905081810360008301526137a781613283565b9050919050565b600060208201905081810360008301526137c7816132a6565b9050919050565b600060208201905081810360008301526137e7816132c9565b9050919050565b60006020820190508181036000830152613807816132ec565b9050919050565b600060208201905081810360008301526138278161330f565b9050919050565b6000602082019050818103600083015261384781613332565b9050919050565b6000602082019050818103600083015261386781613355565b9050919050565b6000602082019050818103600083015261388781613378565b9050919050565b600060208201905081810360008301526138a78161339b565b9050919050565b600060208201905081810360008301526138c7816133be565b9050919050565b600060208201905081810360008301526138e7816133e1565b9050919050565b6000602082019050818103600083015261390781613404565b9050919050565b6000602082019050818103600083015261392781613427565b9050919050565b600060208201905081810360008301526139478161344a565b9050919050565b600060208201905081810360008301526139678161346d565b9050919050565b6000602082019050818103600083015261398781613490565b9050919050565b600060208201905081810360008301526139a7816134b3565b9050919050565b600060208201905081810360008301526139c7816134d6565b9050919050565b600060208201905081810360008301526139e7816134f9565b9050919050565b60006020820190508181036000830152613a078161351c565b9050919050565b60006020820190508181036000830152613a278161353f565b9050919050565b60006020820190508181036000830152613a4781613562565b9050919050565b60006020820190508181036000830152613a6781613585565b9050919050565b60006020820190508181036000830152613a87816135a8565b9050919050565b60006020820190508181036000830152613aa7816135cb565b9050919050565b6000602082019050613ac3600083018461367a565b92915050565b600060a082019050613ade600083018861367a565b8181036020830152613af08187613219565b90508181036040830152613b048186613219565b9050613b136060830185613114565b613b20608083018461367a565b9695505050505050565b6000613b34613b45565b9050613b408282613df3565b919050565b6000604051905090565b600067ffffffffffffffff821115613b6a57613b69613f2b565b5b613b7382613f5a565b9050602081019050919050565b600067ffffffffffffffff821115613b9b57613b9a613f2b565b5b613ba482613f5a565b9050602081019050919050565b6000819050602082019050919050565b600081519050919050565b600081519050919050565b600081519050919050565b6000602082019050919050565b600082825260208201905092915050565b600082825260208201905092915050565b600082825260208201905092915050565b600082825260208201905092915050565b600081905092915050565b6000613c4982613d75565b9150613c5483613d75565b9250827fffffffffffffffffffffffffffffffffffffffffffffffffffffffffffffffff03821115613c8957613c88613e9e565b5b828201905092915050565b6000613c9f82613d75565b9150613caa83613d75565b925082613cba57613cb9613ecd565b5b828204905092915050565b6000613cd082613d75565b9150613cdb83613d75565b925082821015613cee57613ced613e9e565b5b828203905092915050565b6000613d0482613d55565b9050919050565b6000613d1682613d55565b9050919050565b60008115159050919050565b60007fffffffff0000000000000000000000000000000000000000000000000000000082169050919050565b600073ffffffffffffffffffffffffffffffffffffffff82169050919050565b6000819050919050565b82818337600083830152505050565b60005b83811015613dac578082015181840152602081019050613d91565b83811115613dbb576000848401525b50505050565b60006002820490506001821680613dd957607f821691505b60208210811415613ded57613dec613efc565b5b50919050565b613dfc82613f5a565b810181811067ffffffffffffffff82111715613e1b57613e1a613f2b565b5b80604052505050565b6000613e2f82613d75565b91507fffffffffffffffffffffffffffffffffffffffffffffffffffffffffffffffff821415613e6257613e61613e9e565b5b600182019050919050565b6000613e7882613d75565b9150613e8383613d75565b925082613e9357613e92613ecd565b5b828206905092915050565b7f4e487b7100000000000000000000000000000000000000000000000000000000600052601160045260246000fd5b7f4e487b7100000000000000000000000000000000000000000000000000000000600052601260045260246000fd5b7f4e487b7100000000000000000000000000000000000000000000000000000000600052602260045260246000fd5b7f4e487b7100000000000000000000000000000000000000000000000000000000600052604160045260246000fd5b6000601f19601f8301169050919050565b7f4f6e6c7920746865206f776e65722063616e2077697468647261772066756e6460008201527f7300000000000000000000000000000000000000000000000000000000000000602082015250565b7f4552433732313a207472616e7366657220746f206e6f6e20455243373231526560008201527f63656976657220696d706c656d656e7465720000000000000000000000000000602082015250565b7f4552433732313a207472616e736665722066726f6d20696e636f72726563742060008201527f6f776e6572000000000000000000000000000000000000000000000000000000602082015250565b7f4552433732313a20746f6b656e20616c7265616479206d696e74656400000000600082015250565b7f50726963652073686f756c642062652067726561746572207468616e20300000600082015250565b7f4552433732313a207472616e7366657220746f20746865207a65726f2061646460008201527f7265737300000000000000000000000000000000000000000000000000000000602082015250565b7f4552433732313a20617070726f766520746f2063616c6c657200000000000000600082015250565b7f53656e6420656e6f75676820657468657220746f206c6973742e000000000000600082015250565b7f4552433732313a206f70657261746f7220717565727920666f72206e6f6e657860008201527f697374656e7420746f6b656e0000000000000000000000000000000000000000602082015250565b7f496e73756666696369656e742066756e64730000000000000000000000000000600082015250565b7f496e73756666696369656e7420646f6e6174696f6e20616d6f756e7400000000600082015250565b7f4552433732313a20617070726f76652063616c6c6572206973206e6f74206f7760008201527f6e6572206e6f7220617070726f76656420666f7220616c6c0000000000000000602082015250565b7f4e6f7420746865206f776e657200000000000000000000000000000000000000600082015250565b7f4552433732313a2062616c616e636520717565727920666f7220746865207a6560008201527f726f206164647265737300000000000000000000000000000000000000000000602082015250565b7f4552433732313a206f776e657220717565727920666f72206e6f6e657869737460008201527f656e7420746f6b656e0000000000000000000000000000000000000000000000602082015250565b7f45524337323155524953746f726167653a2055524920736574206f66206e6f6e60008201527f6578697374656e7420746f6b656e000000000000000000000000000000000000602082015250565b7f4552433732313a206d696e7420746f20746865207a65726f2061646472657373600082015250565b7f45524337323155524953746f726167653a2055524920717565727920666f722060008201527f6e6f6e6578697374656e7420746f6b656e000000000000000000000000000000602082015250565b7f4552433732313a20617070726f76656420717565727920666f72206e6f6e657860008201527f697374656e7420746f6b656e0000000000000000000000000000000000000000602082015250565b7f4552433732314d657461646174613a2055524920717565727920666f72206e6f60008201527f6e6578697374656e7420746f6b656e0000000000000000000000000000000000602082015250565b7f4552433732313a20617070726f76616c20746f2063757272656e74206f776e6560008201527f7200000000000000000000000000000000000000000000000000000000000000602082015250565b7f4e4654206e6f7420617661696c61626c6520666f722070757263686173650000600082015250565b7f4552433732313a207472616e736665722063616c6c6572206973206e6f74206f60008201527f776e6572206e6f7220617070726f766564000000000000000000000000000000602082015250565b7f4d616b652073757265207468652070726963652069736e2774206e656761746960008201527f7665000000000000000000000000000000000000000000000000000000000000602082015250565b7f4e465420697320616c726561647920736f6c6400000000000000000000000000600082015250565b6145af81613cf9565b81146145ba57600080fd5b50565b6145c681613d1d565b81146145d157600080fd5b50565b6145dd81613d29565b81146145e857600080fd5b50565b6145f481613d75565b81146145ff57600080fd5b5056fea26469706673582212202932cae491e53a96b4f7943d33a0355df8d0ece1db420eeaa3dafb77c4628cda64736f6c63430008040033",
  "linkReferences": {},
  "deployedLinkReferences": {}
}